:020000040000FA
:0400040009EF00F010
:10000C0057829CED0FF024EF0EF00450800B0D6E18
:10001C00045004240F6E03AE16EF00F018EF00F03E
:10002C0019EF00F00F800F50D8B41FEF00F021EF44
:10003C0000F035EF00F00F28D8A427EF00F029EFDF
:10004C0000F031EF00F0000E016E000E026E000E9B
:10005C00036E000E046E038E046A3DEF00F0000E7A
:10006C00016E000E026E000E036E000E046E085040
:10007C00800B0E6E0D500E18D8B447EF00F049EF00
:10008C0000F04AEF00F00D8C085008240E6E07AEFD
:10009C0052EF00F054EF00F055EF00F00E800E50D0
:1000AC00D8B45BEF00F05DEF00F071EF00F00E28BC
:1000BC00D8A463EF00F065EF00F06DEF00F0000ED8
:1000CC00056E000E066E000E076E000E086E078E93
:1000DC00086A79EF00F0000E056E000E066E000E39
:1000EC00076E000E086E0F500E5CD8B080EF00F05B
:1000FC0082EF00F0A9EF00F00DAC87EF00F089EF74
:10010C0000F08BEF00F0800E0D1A0FC010F00EC037
:10011C000FF010C00EF001C010F005C001F010C0BF
:10012C0005F002C010F006C002F010C006F003C0CB
:10013C0010F007C003F010C007F004C010F008C0A6
:10014C0004F010C008F0106A0F500EC009F00A6AD3
:10015C00095E000E0A5A0ABEBDEF00F00A5009E112
:10016C001A0E095CD8A0BDEF00F0BFEF00F0F6EF5F
:10017C0000F00150021003100410D8A4C8EF00F0D6
:10018C00CBEF00F0010ECCEF00F0000E106E000E65
:10019C00016E000E026E000E036E000E046E0EC099
:1001AC000FF0FFEF00F010A0DEEF00F0E0EF00F03A
:1001BC00E6EF00F0D89010300109106EE8EF00F077
:1001CC00D890103201A0EDEF00F0EFEF00F0F0EF5F
:1001DC0000F0108E043404320332023201320F2A42
:1001EC000E500F5CD8A0FDEF00F0FFEF00F0D9EF40
:1001FC0000F00DBC04EF01F006EF01F046EF01F04A
:10020C000F50D8A40CEF01F00EEF01F018EF01F035
:10021C00000E016E000E026E000E036E000E046ED8
:10022C0065EF02F00550012606500222075003220A
:10023C000850042204A025EF01F027EF01F0D3EFC2
:10024C0001F010A02CEF01F02EEF01F034EF01F0D3
:10025C00D89010300109106E36EF01F0D8901032A2
:10026C0001A03BEF01F03DEF01F03EEF01F0108EED
:10027C00043404320332023201320F2AD3EF01F07C
:10028C000550015C06500258075003580450800A70
:10029C00096E0850800A0958D8B057EF01F059EF91
:1002AC0001F084EF01F00150055C096E0250065814
:1002BC000A6E035007580B6E045008580C6EFF0E54
:1002CC000924016EFF0E0A20026EFF0E0B20036E36
:1002DC00FF0E0C20046E800E0D1A106C1050D8A45A
:1002EC007AEF01F07CEF01F08CEF01F0010E0126AA
:1002FC00000E0222032204228CEF01F00550015E55
:10030C000650025A0750035A0850045A0150021062
:10031C0003100410D8A495EF01F097EF01F0CCEF87
:10032C0001F01050D8A49DEF01F09FEF01F0CCEF3D
:10033C0001F0000E016E000E026E000E036E000E38
:10034C00046E65EF02F0D89001360236033604369F
:10035C0010AEB3EF01F0B5EF01F0B6EF01F0018094
:10036C0010A0BBEF01F0BDEF01F0C1EF01F0D880A0
:10037C001036C3EF01F0D89010360F50D8B4C9EF37
:10038C0001F0CBEF01F0CCEF01F00F0603AED1EF93
:10039C0001F0D3EF01F0A9EF01F00E6A10AED9EF26
:1003AC0001F0DBEF01F0F3EF01F010C009F07F0E6C
:1003BC000916D8B4E4EF01F0E6EF01F0EAEF01F032
:1003CC00010E0E6EF3EF01F001A0EFEF01F0F1EF73
:1003DC0001F0F3EF01F0E6EF01F00E50D8B4F9EFB5
:1003EC0001F0FBEF01F026EF02F0010E0126000EEA
:1003FC0002220322042204A006EF02F008EF02F00E
:10040C0026EF02F001C009F002C00AF003C00BF0A5
:10041C0004C00CF00C340C320B320A32093209C015
:10042C0001F00AC002F00BC003F00CC004F00F285E
:10043C00D8B423EF02F025EF02F026EF02F00F2ADA
:10044C000F28D8B42CEF02F02EEF02F036EF02F0AA
:10045C000F50D8A434EF02F036EF02F047EF02F061
:10046C00000E016E000E026E000E036E000E046E86
:10047C000F50D8A444EF02F046EF02F047EF02F021
:10048C000D6A0FA04CEF02F04EEF02F051EF02F0AC
:10049C00038E52EF02F0039ED8900F30046E0DAE17
:1004AC005AEF02F05CEF02F05DEF02F0048E01C037
:1004BC0001F002C002F003C003F004C004F012000B
:1004CC001450800B1D6E14501424236E13AE71EF58
:1004DC0002F073EF02F074EF02F023802350D8B4D3
:1004EC007AEF02F07CEF02F08FEF02F02328D8A411
:1004FC0082EF02F084EF02F08CEF02F0000E116E2E
:10050C00000E126E000E136E000E146E138E97EF0B
:10051C0002F0000E116E000E126E000E136E000E25
:10052C00146E1850800B1D1A18501824226E17AE1A
:10053C00A2EF02F0A4EF02F0A5EF02F0228022500D
:10054C00D8B4ABEF02F0ADEF02F0C0EF02F022280E
:10055C00D8A4B3EF02F0B5EF02F0BDEF02F0000E3D
:10056C00156E000E166E000E176E000E186E178E9E
:10057C00C8EF02F0000E156E000E166E000E176E10
:10058C00000E186E2250D8B4CEEF02F0D0EF02F06D
:10059C00D8EF02F02350D8A4D6EF02F0D8EF02F037
:1005AC00E2EF02F0000E116E000E126E000E136ED2
:1005BC00000E146E78EF04F017501102F3CF28F0F0
:1005CC00F4CF29F028501E6E1F6A206A216A295028
:1005DC00246E256A266A276A16501202F3CF28F079
:1005EC00F4CF29F028501E26000E1F222022212293
:1005FC0029502426000E25222622272215501302CC
:10060C00F3CF28F0F4CF29F028501E26000E1F221D
:10061C002022212229502426000E252226222722A0
:10062C0020C021F01FC020F01EC01FF01E6A155004
:10063C001202F3CF28F0F4CF29F028501E262950AF
:10064C001F22000E2022000E212216501102F3CF81
:10065C0028F0F4CF29F028501E2629501F22000E16
:10066C002022000E212220C021F01FC020F01EC02D
:10067C001FF01E6A15501102F3CF28F0F4CF29F0A9
:10068C0028501E2629501F22000E2022000E212247
:10069C0017501202F3CF28F0F4CF29F0285024265B
:1006AC0029502522000E2622000E27221650130256
:1006BC00F3CF28F0F4CF29F02850242629502522F6
:1006CC00000E2622000E272217501302F3CF28F01B
:1006DC00F4CF29F02850196E29501A6E1B6A1C6A27
:1006EC001BC01CF01AC01BF019C01AF0196A195063
:1006FC0024261A5025221B5026221C5027221EC0AD
:10070C0019F01FC01AF020C01BF021C01CF0190EEC
:10071C0095EF03F0D8901C321B321A321932E82EA6
:10072C0090EF03F0195024261A5025221B50262234
:10073C001C50272220C021F01FC020F01EC01FF02B
:10074C001E6A225023C019F01A6A1926000E1A22AA
:10075C00820E1924286EFF0E1A20296ECBEF03F09F
:10076C00D890243625362636273621AEC0EF03F036
:10077C00C2EF03F0C3EF03F02480D8901E361F366F
:10078C00203621362806D8A0290626AED0EF03F055
:10079C00D2EF03F0B6EF03F0226A21AED8EF03F0EC
:1007AC00DAEF03F0FEEF03F0FF0E1E14196EFF0ECE
:1007BC001F141A6EFF0E20141B6E7F0E21141C6E5C
:1007CC0019501A101B101C10D8B4EFEF03F0F1EFF6
:1007DC0003F0F5EF03F0010E226EFEEF03F024A000
:1007EC00FAEF03F0FCEF03F0FEEF03F0F1EF03F090
:1007FC002250D8B404EF04F006EF04F02AEF04F012
:10080C00010E2426000E25222622272227A011EFD6
:10081C0004F013EF04F02AEF04F024C019F025C003
:10082C001AF026C01BF027C01CF01C341C321B32E3
:10083C001A32193219C024F01AC025F01BC026F048
:10084C001CC027F0284A292A29BE35EF04F029506C
:10085C0008E12828D8A035EF04F037EF04F041EF79
:10086C0004F0000E246E000E256E800E266E7F0E98
:10087C00276E6EEF04F029BE4EEF04F0295006E10E
:10088C002804D8B04CEF04F04EEF04F059EF04F00C
:10089C00000E246E000E256E000E266E000E276EC6
:1008AC001D6A6EEF04F028C023F0FF0E2416FF0E15
:1008BC0025167F0E2616000E271623A068EF04F0CF
:1008CC006AEF04F06BEF04F0268ED8902330276E7D
:1008DC001D50271224C011F025C012F026C013F0B1
:1008EC0027C014F012002D50800B3A6E2D502D2481
:1008FC00416E2CAE84EF04F086EF04F087EF04F029
:10090C0041804150D8B48DEF04F08FEF04F0A3EF89
:10091C0004F04128D8A495EF04F097EF04F09FEF72
:10092C0004F0000E2A6E000E2B6E000E2C6E000EC4
:10093C002D6E2C8E2D6AABEF04F0000E2A6E000E7D
:10094C002B6E000E2C6E000E2D6E3150800B3A1A51
:10095C0031503124426E30AEB6EF04F0B8EF04F0F3
:10096C00B9EF04F042804250D8B4BFEF04F0C1EFAD
:10097C0004F0D5EF04F04228D8A4C7EF04F0C9EF77
:10098C0004F0D1EF04F0000E2E6E000E2F6E000E50
:10099C00306E000E316E308E316ADDEF04F0000ED9
:1009AC002E6E000E2F6E000E306E000E316E2E501D
:1009BC002F1030103110D8A4E6EF04F0E8EF04F05B
:1009CC0000EF05F0000E2A6E000E2B6E000E2C6E42
:1009DC00000E2D6E800E2C127F0E2D123A502D1201
:1009EC002AC02AF02BC02BF02CC02CF02DC02DF0DF
:1009FC0040EF06F04150D8A406EF05F008EF05F0E3
:100A0C0012EF05F0000E2A6E000E2B6E000E2C6EEF
:100A1C00000E2D6E40EF06F0425041C032F0336AAA
:100A2C00325E000E335A7F0E32243B6E000E3320A2
:100A3C003C6E2AC036F02BC037F02CC038F02DC0DD
:100A4C0039F0000E2A6E000E2B6E000E2C6E000E6E
:100A5C002D6E000E3D6E000E3E6E000E3F6E000EB3
:100A6C00406E426A72EF05F04250D8B440EF05F088
:100A7C0042EF05F059EF05F0D89036363736383658
:100A8C003936D8902A362B362C362D3640AE51EFCF
:100A9C0005F053EF05F054EF05F02A80D8903D3661
:100AAC003E363F3640362E50365C2F50375830503D
:100ABC00385831503958D8A066EF05F068EF05F07A
:100ACC0071EF05F0408C2E50365E2F50375A305057
:100ADC00385A3150395A422A190E426478EF05F0CF
:100AEC007AEF05F03AEF05F0365037103810391020
:100AFC00D8B483EF05F085EF05F09DEF05F03D8050
:100B0C009DEF05F0D8902A362B362C362D3640AE7C
:100B1C0092EF05F094EF05F095EF05F02A80D89050
:100B2C003D363E363F3640363B06D8A03C062CAE12
:100B3C00A2EF05F0A4EF05F088EF05F0426A40AE95
:100B4C00AAEF05F0ACEF05F0D0EF05F0FF0E3D1469
:100B5C00326EFF0E3E14336EFF0E3F14346E7F0E5A
:100B6C004014356E3250331034103510D8B4C1EFF8
:100B7C0005F0C3EF05F0C7EF05F0010E426ED0EFA4
:100B8C0005F02AA0CCEF05F0CEEF05F0D0EF05F084
:100B9C00C3EF05F04250D8B4D6EF05F0D8EF05F00E
:100BAC00FCEF05F0010E2A26000E2B222C222D2202
:100BBC002DA0E3EF05F0E5EF05F0FCEF05F02AC002
:100BCC0032F02BC033F02CC034F02DC035F035345E
:100BDC00353234323332323232C02AF033C02BF059
:100BEC0034C02CF035C02DF03B4A3C2A3CBE07EFFC
:100BFC0006F03C5008E13B28D8A007EF06F009EFBF
:100C0C0006F014EF06F0000E3C6E3B68000E2A6EE8
:100C1C00000E2B6E000E2C6E000E2D6E3CBE21EFC6
:100C2C0006F03C5006E13B04D8B01FEF06F021EF74
:100C3C0006F02EEF06F0000E3C6E000E3B6E000E22
:100C4C002A6E000E2B6E000E2C6E000E2D6E3A6A64
:100C5C003BC041F041A035EF06F037EF06F03AEF1C
:100C6C0006F02C8E3BEF06F02C9ED89041302D6E6A
:100C7C00F4EF04F01200966A956AA3EC0DF0C6EC42
:100C8C000FF07FEC0FF0B2EC0FF070EC0FF0C0EC4B
:100C9C000FF0000E0001986F000E976F1F0E4E6E36
:100CAC00710E4D6E1E0EE82EFED74D2EFCD74E2E1D
:100CBC00FAD700D097C08AF098C08BF0000EA3EC46
:100CCC000EF001C088F002C089F088C02AF089C0FB
:100CDC002BF000EC0EF02AC080F02BC081F02CC061
:100CEC0082F02DC083F080C02AF081C02BF082C02E
:100CFC002CF083C02DF0D3EC0DF02AC093F02BC058
:100D0C0094F02CC095F02DC096F0000E016E000EE4
:100D1C00026EA80E036E410E046E93C005F094C0D3
:100D2C0006F095C007F096C008F07AEC0AF0D8A04F
:100D3C00A2EF06F0A4EF06F0A9EF06F00F0E0001EB
:100D4C00906F25EF07F093C001F094C002F095C0AE
:100D5C0003F096C004F0000E056E000E066E200E19
:100D6C00076E420E086E7AEC0AF0D8A0C0EF06F0BF
:100D7C00C2EF06F0C7EF06F0EB0E0001906F25EF07
:100D8C0007F0000E2E6E000E2F6E980E306E410E78
:100D9C00316E000E156E000E166E5C0E176E430E45
:100DAC00186E000E056E000E066EA80E076EC10EB4
:100DBC00086E93C001F094C002F095C003F096C089
:100DCC0004F00BEC00F001C011F002C012F003C0F3
:100DDC0013F004C014F066EC02F011C02AF012C03B
:100DEC002BF013C02CF014C02DF079EC04F02AC0B9
:100DFC0084F02BC085F02CC086F02DC087F0000E3F
:100E0C00056E000E066E000E076E3F0E086E84C057
:100E1C0001F085C002F086C003F087C004F00BEC33
:100E2C0000F001C043F002C044F003C045F004C020
:100E3C0046F0F7EC09F043500F0F0001906F905102
:100E4C00BAEC0FF0000E056E000E066E000E076E6B
:100E5C003F0E086E000E156E000E166E200E176EED
:100E6C00410E186E93C011F094C012F095C013F09F
:100E7C0096C014F066EC02F011C001F012C002F042
:100E8C0013C003F014C004F00BEC00F001C043F0ED
:100E9C0002C044F003C045F004C046F0F7EC09F082
:100EAC0043C091F044C092F091C001F092C002F0A6
:100EBC00000E046E0A0E036EFCEC0AF001C08CF0FE
:100ECC0002C08DF091C001F092C002F0000E046ED1
:100EDC000A0E036EB7EC0BF001C08EF002C08FF05F
:100EEC00C6EC0FF0000E046E010E86EC0EF0600ED8
:100EFC00316EF30E326E3E0E336E8CC034F08DC0FC
:100F0C0035F08EC036F08FC037F0C0EC0EF0600EAE
:100F1C00046E600E016E43EC0FF00150056E5AEC3E
:100F2C000FF0600E316EE30E326E3E0E336E8AC0E1
:100F3C0034F08BC035F0C0EC0EF0600E016EDCECC2
:100F4C000EF04FEF06F009EF00F0096E0950D8B41F
:100F5C00B2EF07F0B4EF07F0D6EF07F004BEBBEF2B
:100F6C0007F0B9EF07F0D6EF07F001C005F002C0AB
:100F7C0006F003C007F004C008F0051E061E071E8D
:100F8C00081E052A000E06220722082205C00BF0B7
:100F9C0006C00CF007C00DF008C00EF0DEEF07F035
:100FAC0001C00BF002C00CF003C00DF004C00EF039
:100FBC000150021003100410D8A4E7EF07F0E9EF7A
:100FCC0007F0F3EF07F0000E016E000E026E000E3C
:100FDC00036E000E046E84EF08F0960E0A6EFDEFA1
:100FEC0007F00A2AD8900E320D320C320B32000E5A
:100FFC000B14056E000E0C14066E000E0D14076E0D
:10100C00FE0E0E14086E0550061007100810D8A41A
:10101C0012EF08F014EF08F0F7EF07F022EF08F0EA
:10102C000A2A010E0B26000E0C220D220E22D8903D
:10103C000E320D320C320B32000E0B14056E000EFC
:10104C000C14066E000E0D14076EFF0E0E14086EB7
:10105C000550061007100810D8A437EF08F039EF28
:10106C0008F016EF08F041EF08F00A06D8900B369E
:10107C000C360D360E360DBE46EF08F048EF08F074
:10108C0050EF08F0020E0A604EEF08F050EF08F037
:10109C003BEF08F00AB055EF08F057EF08F058EFA7
:1010AC0008F00D9ED8900A320AC005F0066A076A4D
:1010BC00086A05C008F0076A066A056A05500B1233
:1010CC0006500C1207500D1208500E120950D8B4CD
:1010DC0072EF08F074EF08F07CEF08F004BE7BEFC1
:1010EC0008F079EF08F07CEF08F00E8E0BC001F0E1
:1010FC000CC002F00DC003F00EC004F01200215021
:10110C00D96EDA6ADECFF6FFDDCFF7FF0800F550B7
:10111C00250AD8A494EF08F096EF08F047EF09F0F1
:10112C002150D96EDA6ADE2A000EDD22000E506ED6
:10113C00000E4F6E4FC053F05168526821C001F041
:10114C0022C002F00EEC0CF001C04FF002C050F0C7
:10115C0050BEB5EF08F0B3EF08F0BAEF08F05380CB
:10116C004F6C501ED8B0502A2150D96EDA6ADECF9F
:10117C0029F0DDCF2AF029C0F6FF2AC0F7FF0800BE
:10118C00F550640AD8B4CDEF08F0CFEF08F0DDEFDE
:10119C0008F029C0F6FF2AC0F7FF0800F550690ACD
:1011AC00D8A4DBEF08F0DDEF08F000EF09F02250D7
:1011BC00D96EDA6A020EDF26DF5CD96EDA6ADECF10
:1011CC0025F0DECF26F0010E2924236E000E2A20F6
:1011DC00246E2150D96EDA6A23C0DEFF24C0DDFFF5
:1011EC0020C015F025C016F026C017F059EC09F0F8
:1011FC0058EF09F029C0F6FF2AC0F7FF0800F55098
:10120C00750AD8A40CEF09F00EEF09F03FEF09F0C6
:10121C002250D96EDA6A020EDF26DF5CD96EDA6AEA
:10122C00DECF25F0DECF26F0010E2924236E000E32
:10123C002A20246E2150D96EDA6A23C0DEFF24C026
:10124C00DDFF33EF09F020C015F025C016F026C0E5
:10125C0017F05DEC0BF058EF09F029C0F6FF2AC02F
:10126C00F7FF0800F550750AD8B429EF09F03FEFE5
:10127C0009F02150D96EDA6ADE2A000EDD2258EF11
:10128C0009F02150D96EDA6ADECFF6FFDDCFF7FF19
:10129C000800F550016E026A20C003F064EC0CF0FB
:1012AC003FEF09F01200010E1C6E17BE60EF09F043
:1012BC0063EF09F0010E64EF09F0000E1D6E4FC0D4
:1012CC001AF050C01BF01D50D8B46FEF09F071EF3D
:1012DC0009F088EF09F01A06D8A01B061D50D8A4F7
:1012EC007AEF09F07CEF09F082EF09F0000E196E2D
:1012FC002B0E186E86EF09F0000E196E2D0E186E5F
:10130C0018C01DF0000E1F6E1F0E1E6E0001B86B74
:10131C00BCEF09F01E06D8A01F061E50990FD96EFF
:10132C00DA6A16C001F017C002F0000E046E0A0E45
:10133C00036EB7EC0BF001C007F002C008F0F7EC3D
:10134C000EF00750300FDF6E1C6A1A06D8A01B0671
:10135C0016C001F017C002F0000E046E0A0E036EE8
:10136C00FCEC0AF001C016F002C017F01FBEC7EF6C
:10137C0009F01F5008E11E04D8A0C7EF09F0C9EF0F
:10138C0009F0DAEF09F016501710D8A4D0EF09F0D5
:10139C00D2EF09F090EF09F01C50D8A4D8EF09F067
:1013AC00DAEF09F090EF09F01D50D8B4E0EF09F036
:1013BC00E2EF09F0EBEF09F01E06D8A01F061E5055
:1013CC00990FD96EDA6A1DC0DFFF15C00EF01E50E2
:1013DC00990F0F6E1AC010F01BC011F0B9EC0CF085
:1013EC001200453446344C6E4C50D8A400EF0AF031
:1013FC0002EF0AF00CEF0AF0000E436E000E446E82
:10140C00000E456E000E466E79EF0AF043C047F0B1
:10141C0044C048F045C049F046C04AF0200E1CEFCD
:10142C000AF0D8904A32493248324732E82E17EF48
:10143C000AF047504B6E458EFF0E4316FF0E4416B6
:10144C00FF0E4516000E4616960E4C5E4CBE33EF44
:10145C000AF031EF0AF049EF0AF04C50800A970F6E
:10146C00D8B03BEF0AF03DEF0AF03FEF0AF002EF85
:10147C000AF0D89046324532443243324C3E3FEF6C
:10148C000AF061EF0AF01F0E4C644FEF0AF051EFB7
:10149C000AF059EF0AF002EF0AF0D89043364436BE
:1014AC00453646364C064C50D8A45FEF0AF061EF37
:1014BC000AF053EF0AF04B50D8B467EF0AF069EF1B
:1014CC000AF071EF0AF0461E451E441E436C000ED6
:1014DC0044224522462243C043F044C044F045C058
:1014EC0045F046C046F01200000E0114096E000EC5
:1014FC0002140A6E800E03140B6E7F0E04140C6E15
:10150C0009500A100B100C10D8A48FEF0AF091EFB1
:10151C000AF099EF0AF0000E016E000E026E000E3A
:10152C00036E000E046E000E0514096E000E0614F8
:10153C000A6E800E07140B6E7F0E08140C6E095089
:10154C000A100B100C10D8A4AEEF0AF0B0EF0AF092
:10155C00B8EF0AF0000E056E000E066E000E076E58
:10156C00000E086E04AEBDEF0AF0BFEF0AF0C8EF34
:10157C000AF0016C021ED8B0022A031ED8B0032A4E
:10158C00800E045608AECDEF0AF0CFEF0AF0D8EF7C
:10159C000AF0056C061ED8B0062A071ED8B0072A1A
:1015AC00800E0856000E011A000E021A000E031AC5
:1015BC00800E041A000E051A000E061A000E071AE9
:1015CC00800E081A0550015C06500258075003584B
:1015DC0008500458D8B0F5EF0AF0F7EF0AF0FAEF1C
:1015EC000AF0D890FBEF0AF0D8801200066A04BE0D
:1015FC0004EF0BF002EF0BF00AEF0BF0036C041E80
:10160C00D8B0042A010E066E02BE11EF0BF00FEFDC
:10161C000BF017EF0BF0016C021ED8B0022A010E72
:10162C00061A000E086E000E076E03500410D8B494
:10163C0022EF0BF024EF0BF04CEF0BF0010E056ECC
:10164C002CEF0BF0D89003360436052A04AE31EF9C
:10165C000BF033EF0BF028EF0BF0D8900736083671
:10166C000350015C04500258D8A03FEF0BF041EF3F
:10167C000BF046EF0BF00350015E0450025A07804A
:10168C00D89004320332052E33EF0BF00650D8B449
:10169C0052EF0BF054EF0BF058EF0BF0076C081EE9
:1016AC00D8B0082A07C001F008C002F01200010EE1
:1016BC001A6E4FC018F050C019F0000E1C6E1F0EA1
:1016CC001B6E0001B86B91EF0BF01B06D8A01C062B
:1016DC001B50990FD96EDA6A16C001F017C002F0D0
:1016EC00000E046E0A0E036E71EC0DF00150300FFB
:1016FC00DF6E1A6A1806D8A0190616C001F017C0BA
:10170C0002F0000E046E0A0E036EFEEC0CF001C02B
:10171C0016F002C017F01B501C10D8B498EF0BF049
:10172C009AEF0BF0ABEF0BF016501710D8A4A1EFFB
:10173C000BF0A3EF0BF06BEF0BF01A50D8A4A9EF42
:10174C000BF0ABEF0BF06BEF0BF015C00EF01B506A
:10175C00990F0F6E18C010F019C011F0B9EC0CF005
:10176C001200066A02BEBFEF0BF0BDEF0BF0C5EF27
:10177C000BF0016C021ED8B0022A010E066E04BEDC
:10178C00CCEF0BF0CAEF0BF0D0EF0BF0036C041E98
:10179C00D8B0042A03500410D8B4D7EF0BF0D9EF0B
:1017AC000BF0FDEF0BF0010E056EE1EF0BF0D89096
:1017BC0003360436052A04AEE6EF0BF0E8EF0BF027
:1017CC00DDEF0BF00350015C04500258D8A0F1EF90
:1017DC000BF0F3EF0BF0F7EF0BF00350015E04503E
:1017EC00025AD89004320332052EE8EF0BF0065063
:1017FC00D8B403EF0CF005EF0CF009EF0CF0016C12
:10180C00021ED8B0022A01C001F002C002F0120080
:10181C00000E076E000E066E0150D96EDA6ADECF2E
:10182C00F6FFDDCFF7FF0800F5502A0AD8A421EF08
:10183C000CF023EF0CF04CEF0CF00150D96EDA6A7F
:10184C00DE2A000EDD220250D96EDA6A020EDF2685
:10185C00DF5CD96EDA6ADECF06F0DECF07F05FEF21
:10186C000CF00A0E0602F3CF03F0F4CF04F00702DB
:10187C00F350042605500324066E000E0420076E58
:10188C000150D96EDA6ADE2A000EDD220150D96EC3
:10189C00DA6ADECFF6FFDDCFF7FF0800F550D00F88
:1018AC00056E090E05645DEF0CF05FEF0CF037EF81
:1018BC000CF006C001F007C002F012000350D8B4BF
:1018CC006AEF0CF06CEF0CF074EF0CF00350D8A432
:1018DC0072EF0CF074EF0CF079EF0CF00150CAECD5
:1018EC000FF0B8EF0CF00350D96EDA6A090ED92656
:1018FC00DE50DE10D8B485EF0CF087EF0CF0A0EFC3
:10190C000CF00350D96EDA6A090ED9260350E16E39
:10191C00E26A020EE126DE50E65CE650800A086EB2
:10192C00DE50800A0858D8B09EEF0CF0A0EF0CF0F7
:10193C00B8EF0CF00350D96EDA6A020ED926DF50DC
:10194C00046E0350D96EDA6ADF500424D96EDA6A59
:10195C0001C0DFFF0350D96EDA6A020ED926DE2AE7
:10196C00000EDD22120053A0BEEF0CF0C0EF0CF005
:10197C00C6EF0CF00FC009F00EC00AF068EC0EF0C8
:10198C0011BECDEF0CF0CBEF0CF0D1EF0CF0000E44
:10199C00116E000E106E000E146E000E136EE1EF41
:1019AC000CF0000E026E200E016E0EC003F064EC03
:1019BC000CF0134A142A1050135C1450800A126E47
:1019CC001150800A1258D8A0EEEF0CF0F0EF0CF08A
:1019DC00D7EF0CF053B0F5EF0CF0F7EF0CF0FDEF88
:1019EC000CF00FC009F00EC00AF068EC0EF01200FB
:1019FC00000E066E000E056E03500410D8B409EFED
:101A0C000DF00BEF0DF033EF0DF0010E076E13EF31
:101A1C000DF0D89003360436072A04AE18EF0DF0FB
:101A2C001AEF0DF00FEF0DF0D89005360636035077
:101A3C00015C04500258D8A026EF0DF028EF0DF0F1
:101A4C002DEF0DF00350015E0450025A0580D89022
:101A5C0004320332072E1AEF0DF005C001F006C058
:101A6C0002F01200F80E956E8D908D828D84F00E22
:101A7C0000D0E82EFDD783CF01F08D94F00E00D06E
:101A8C00E82EFDD78D84F00E00D0E82EFDD78D9476
:101A9C000150800B016E67EF0DF08D84F00E00D0BD
:101AAC00E82EFDD783CF01F08D94F00E00D0E82EF8
:101ABC00FDD78D84F00E00D0E82EFDD78D944EEF1F
:101ACC000DF0800E0118D8B46EEF0DF070EF0DF024
:101ADC0053EF0DF0120003500410D8B478EF0DF052
:101AEC007AEF0DF09EEF0DF0010E056E82EF0DF00A
:101AFC00D89003360436052A04AE87EF0DF089EF33
:101B0C000DF07EEF0DF00350015C04500258D8A08C
:101B1C0092EF0DF094EF0DF098EF0DF00350015E85
:101B2C000450025AD89004320332052E89EF0DF07E
:101B3C0001C001F002C002F012008D908D92300EA7
:101B4C008EEC0FF0200E046E2A0EE82EFED7042E1B
:101B5C00FCD7200E046E2A0EE82EFED7042EFCD7DE
:101B6C00300E8EEC0FF0F00E00D0E82EFDD7300EBC
:101B7C008EEC0FF0200E8EEC0FF0010E2AEC0FF015
:101B8C00280E2AEC0FF00F0E2AEC0FF0060E2AECA2
:101B9C000FF0010E2AEC0FF01200A40E156EF00ED1
:101BAC00166E960E176E420E186E2AC011F02BC0D0
:101BBC0012F02CC013F02DC014F066EC02F011C022
:101BCC0001F012C002F013C003F014C004F07B0E3D
:101BDC00056E140E066E6E0E076EBF0E086E0BECC5
:101BEC0000F001C02AF002C02BF003C02CF004C09E
:101BFC002DF012002AC001F02BC002F0036A046A17
:101C0C00000EABEC07F001C011F002C012F003C0E3
:101C1C0013F004C014F00A0E156E280E166EA00EEA
:101C2C00176E3B0E186E66EC02F011C02AF012C053
:101C3C002BF013C02CF014C02DF01200540EF66EC5
:101C4C001F0EF76E000EF86E00EEB9F010EE10F0ED
:101C5C000900F5CFEEFFE550E150FAE100EE97F008
:101C6C00220EEE6AE806FDE100EE4FF0080EEE6A79
:101C7C00E806FDE157905792000EF86E000141EF17
:101C8C0006F02CC02FF02DC030F055EF0EF02BC00D
:101C9C0020F02F0E216E2EC022F085EC08F02FC004
:101CAC00F6FF30C0F7FF0800F5500009D8A461EF2B
:101CBC000EF063EF0EF04DEF0EF0000E2C6E000EDA
:101CCC002B6E1200000E0D6E000E0C6E77EF0EF0E8
:101CDC000BC001F0026A0AC003F064EC0CF00C4A71
:101CEC000D2A09500C24D96EDA6ADF500B6E0B509A
:101CFC00D8A483EF0EF085EF0EF06EEF0EF012000D
:101D0C00056E0504D8A48DEF0EF08FEF0EF095EF55
:101D1C000EF00450800F2AEC0FF0A2EF0EF0020E22
:101D2C000518D8A49CEF0EF09EEF0EF0A2EF0EF06B
:101D3C000450C00F2AEC0FF01200056E0544E84663
:101D4C00FC0B0109C26E640EE82EFED7C282C2B231
:101D5C00B2EF0EF0B4EF0EF0ADEF0EF0C350C4CFF7
:101D6C0003F0046A03C004F0036A0310016E04500C
:101D7C00026E1200340E386E31C039F0000E3C6E1B
:101D8C00000E3B6E000E436E000E426E390E2B6E33
:101D9C0032C02CF033C02DF0380E2E6E47EC0EF006
:101DAC0031503B24D96EDA6ADF6A1200EBEF0EF089
:101DBC00ACA2E3EF0EF0E5EF0EF0DEEF0EF001500B
:101DCC00D96EDA6ADF50AD6E012A0150D96EDA6A2B
:101DDC00DF50D8A4F4EF0EF0F6EF0EF0DEEF0EF0BD
:101DEC00120008BEFCEF0EF0FEEF0EF004EF0FF049
:101DFC0007C007F008C008F010EF0FF007C009F09B
:101E0C0008C00AF0091E0A1E094A0A2A09C007F06E
:101E1C000AC008F01200026E8D8038EC0DF0956A45
:101E2C00F00E00D0E82EFDD78D928D948D8002504F
:101E3C00F00B036E03508EEC0FF00238F00B036EB8
:101E4C0003508EEC0FF01200026E8D9038EC0DF0FA
:101E5C00956AF00E00D0E82EFDD78D928D948D9062
:101E6C000250F00B036E03508EEC0FF00238F00BA7
:101E7C00036E03508EEC0FF0120001C003F048EF1C
:101E8C000FF0012A0150D96EDA6ADF50D8A451EF55
:101E9C000FF053EF0FF047EF0FF00350015C016EA2
:101EAC00026A01BE02061200066A066A66EF0FF0AD
:101EBC0004500624D96EDA6ADF5011EC0FF0062AB2
:101ECC000550065CD8A06DEF0FF06FEF0FF05EEFD2
:101EDC000FF01200949C948E260EAF6EAC94B896B4
:101EEC00AC98AB8EAC9CAB9CAC8AAB889E9A9E9803
:101EFC0012000E0EC16EB90EC06E010EC26E100E27
:101F0C00016E940EE82EFED7012EFCD700D01200E5
:101F1C00016E0F0E8C16F00E011601508C128D8472
:101F2C00F00E00D0E82EFDD78D9412000600F2A220
:101F3C00A2EF0FF0A4EF0FF0A8EF0FF00001974BFA
:101F4C00982BF2925792110031323341343536428C
:101F5C00373839432A302344CB680C0EBD6E040E3F
:101F6C00CA6ECA8494941200016E01C0BEFFCF0EDB
:101F7C00BD1612009380F18CF292F288F28E120050
:0A1F8C00010E2AEC0FF01200120003
:103EE2000053706565643A253475207070730D0A4D
:0D3EF20000543A2532642E2531644300004F
:020000040020DA
:08000000FFFFFFFFFFFFFFFF00
:020000040030CA
:0E000000040E1E1EFF8181FF0FC00FE00F4097
:00000001FF
